:020000040000FA
:020000001D28B9
:040002000034003492
:08000800831203130B1D2928CC
:1000100024181028A00B40283E30A000A10A402838
:10002000A00B4D283E30A000A10B4D280030230727
:10003000A100A20B4D282928090083160313FE30C6
:1000400086008316031385308100831203138330E7
:1000500081008312031380308B00831203138618F0
:10006000332806102D288312031306140030A30032
:100070000030A1003E30A0000030A4000230A200F9
:1000800083120313A0308B0083120313061D442830
:100090000130A40000302107A30083120313A03015
:0400A0008B00512858
:02400E00393F38
:00000001FF
